{
  "contractName": "Test",
  "abi": [
    {
      "constant": false,
      "inputs": [
        {
          "name": "a",
          "type": "int256"
        }
      ],
      "name": "stored",
      "outputs": [],
      "payable": false,
      "stateMutability": "nonpayable",
      "type": "function",
      "signature": "0x3636db7b"
    },
    {
      "constant": true,
      "inputs": [],
      "name": "get",
      "outputs": [
        {
          "name": "",
          "type": "int256"
        }
      ],
      "payable": false,
      "stateMutability": "view",
      "type": "function",
      "signature": "0x6d4ce63c"
    }
  ],
  "bytecode": "0x608060405234801561001057600080fd5b5060ec8061001f6000396000f3fe6080604052600436106049576000357c0100000000000000000000000000000000000000000000000000000000900463ffffffff1680633636db7b14604e5780636d4ce63c146085575b600080fd5b348015605957600080fd5b50608360048036036020811015606e57600080fd5b810190808035906020019092919050505060ad565b005b348015609057600080fd5b50609760b7565b6040518082815260200191505060405180910390f35b8060008190555050565b6000805490509056fea165627a7a7230582012dceb020b67109712cb309c13fe144622366c2fa95f14131af4588aa0ebae3b0029",
  "source": "pragma solidity ^0.5.0;\r\n\r\ncontract Test {\r\n    int value;\r\n\r\n    function stored(int a) public {\r\n        value = a;\r\n    }\r\n\r\n    function get() public view returns(int){\r\n        return value;\r\n    }\r\n}\r\n",
  "sourcePath": "/mnt/c/Users/fantasma/Documents/Development/blockchain/test-inicial/be/contracts/test.sol",
  "compiler": {
    "name": "solc",
    "version": "0.5.0+commit.1d4f565a.Emscripten.clang"
  },
  "schemaVersion": "3.0.2",
  "updatedAt": "2019-03-16T02:04:04.766Z",
  "devdoc": {
    "methods": {}
  },
  "userdoc": {
    "methods": {}
  }
}